:10000000A6C00000C0C00000BEC00000BCC0000010
:10001000BAC00000B8C00000B6C00000B4C0000004
:10002000B2C000007AC600000C94C9080C94940970
:10003000AAC00000A8C00000A6C00000A4C0000024
:10004000A2C00000A0C000009EC000009CC0000034
:100050009AC000009DC7000096C0000094C0000038
:1000600092C0000090C000008EC000008CC0000054
:100070008AC0000088C0000086C0000084C0000064
:1000800082C0000080C000007EC000007CC0000074
:100090007AC0000078C0000076C0000074C0000084
:1000A00072C0000070C000006EC000006364696E22
:1000B0006F70737578585B0026034C00550046003E
:1000C000410020004400750061006C0020004300E6
:1000D000440043002000440065006D006F000000F4
:1000E00018034400650061006E00200043006100B9
:1000F0006D0065007200610000000403090409023C
:100100003E00020100C032090400000102020100A9
:100110000524001001042402060524060001070539
:1001200082030800FF09040100020A00000007051D
:1001300004021000050705830210000512011001DA
:10014000EF020108EB034E2001000102DC01112443
:100150001FBECFEFDAE0DEBFCDBF13E0A0E0B1E01D
:10016000EEECFDE202C005900D92A23AB107D9F77C
:1001700025E0A2EAB3E001C01D92A430B207E1F786
:100180004ED70C94E5163CCFAEE1B0E0EAECF0E0DF
:100190000C94EF0E9E012D5E3F4F3F932F93225004
:1001A00031093F932F93225031093F932F932250CF
:1001B00031093F932F93225031093F932F932250BF
:1001C00031093F932F93225031093F932F932250AF
:1001D00031093F932F93225031093F932F9322509F
:1001E000310979013F932F938E010B5E1F4F1F93AF
:1001F0000F932BE631E03F932F939F938F930E94B1
:10020000AF11B701C8018AD20FB6F894DEBF0FBE96
:10021000CDBF6E96E6E00C940B0F32C70895E091C7
:100220000001F091010181EF93E0099525D710922B
:10023000A4031092A3031092A20308950F931F9397
:10024000CF938091A203882351F08CE891E09F9393
:100250008F930E946D1110D7E2DF0F900F900CD793
:100260008091FE049091FF040E942F11C82F03EC8F
:1002700011E0CF3F29F480E0CF911F910F910895B5
:100280008091A3039091A403803591050CF03FC0A9
:10029000C83079F5019797FD27C09093A403809308
:1002A000A3031F930F930E946D110F900F908C2F3B
:1002B0000C2E000C990B0E947E11DED68091A303B8
:1002C0009091A403FC01EF50FC4FC08301969093E2
:1002D000A4038093A303D0D68091FE049091FF04E1
:1002E0000E942F11C82FC5CF1092A4031092A30310
:1002F000D8CFCD30E1F68F509C4FFC01108281E0C9
:100300008093A20381EC91E00E948311B5D681E035
:10031000B3CF0F931F93CF93AC018091A5038A3085
:1003200028F0F2D0CF911F910F9108952FE0829F76
:10033000F0011124EE5BFB4F528341830091DD03FA
:100340001091DE032091DF033091E003DF01159669
:10035000040F151F211D311D058311961C93119744
:1003600012962C93129713963C93139714961C9203
:10037000149715961C92159716961C921697179619
:100380001C92658776871082148213828F5F809318
:10039000A503C8CFB0E0A0E0E0EDF1E00C94E30EDF
:1003A0008091DD039091DE03A091DF03B091E00323
:1003B0000196A11DB11D8093DD039093DE03A093F0
:1003C000DF03B093E003C091A503D0E0E2E4F4E0E2
:1003D000B0E0A0E0AC17BD072CF0CDB7DEB7E2E18E
:1003E0000C94FF0E4091DD035091DE036091DF031A
:1003F0007091E0031A012B01612C712C4301A5803F
:10040000B680C780D084E184F284038514859A0184
:10041000AB0160E070E080E090E00E941A0FC0F055
:1004200081E080830091DD031091DE032091DF03E2
:100430003091E00381819281080F191F211D311D28
:1004400005831683278330871186128613861486C8
:1004500011963F96BFCF0F931F93CF93DF93C2E4C4
:10046000D4E010E000E08091A5038017110609F0A8
:100470002CF4DF91CF911F910F91089588818823EB
:1004800021F0ED85FE85099518820F5F1F4F2F968D
:10049000EACF80E480937C0087E880937A00089517
:1004A000F8DFEAD56E9A769A089590917C00907E56
:1004B00090937C0090917B008830B8F0906290938C
:1004C0007B0090917C008850892B80937C008091E8
:1004D0007A00806480937A0080917A0086FDFCCF58
:1004E000809178009091790008959F7D90937B0092
:1004F00090917C00E9CF87E491E03CD385E391E0E3
:1005000039C30895F8CF089580914F01882349F0A9
:1005100087E491E075D387E491E072D387E491E0BA
:100520006FD38FEF9FEF089580913D01882319F0DD
:1005300085E391E065C308958091E2049091E3041E
:10054000A091E404B091E504892B8A2B8B2BA9F4AC
:100550002091D7033091D8038091DA049091DB0485
:10056000821B930B97FF03C09195819591098A3F58
:1005700091051CF481E0809334010895A4E0B0E07B
:10058000E4ECF2E00C94F30E9C01990F440B550B34
:1005900029833A834B835C83CA01B9010E943710D7
:1005A0002FE339EE47EC50E469837A838B839C8395
:1005B00069817A818B819C810E94C31069837A83CF
:1005C0008B839C8369817A818B819C810E9404103A
:1005D000462F572FBC014093DA045093DB046093FD
:1005E000DC047093DD041092D8031092D70377FFD8
:1005F00005C0729A2496E2E00C940F0F7298FACF1D
:10060000CF93DF938091D503C091AB03D0E08130CD
:10061000C9F0DF91CF91089580913401813089F440
:10062000FE01EE0FFF1FEE0FFF1FE455FC4F808110
:100630009181A4DF109234018091AB038F5F80938E
:10064000AB032196CA30D10538F38091AB038A30D1
:1006500001F71092AB031092D503DBCFCF93DF935A
:10066000FC01CCEAD3E09C012C5E3F4F819191913B
:10067000092E000CAA0BBB0B89939993A993B993EC
:10068000E217F30799F7DF91CF910895A4E0B0E066
:10069000ECE4F3E00C94F30E0E9437102FE339EEF4
:1006A00047EC50E469837A838B839C8369817A81E8
:1006B0008B819C810E94C31069837A838B839C8386
:1006C00069817A818B819C810E9404102496E2E0EA
:1006D0000C940F0FA4E0B0E0E0E7F3E00C94F30E0D
:1006E0000E9437102FE339EE47EC50E469837A8398
:1006F0008B839C8369817A818B819C810E949C0F72
:1007000069837A838B839C8369817A818B819C81C5
:100710000E9404102496E2E00C940F0F0F931F9395
:10072000CF93DF93D82FC92F8B0167EC71E00E9424
:100730002611892B41F069EC71E08D2F9C2F0E94CE
:100740002611892B39F4C80189DFDF91CF911F91E0
:100750000F9108956BEC71E08D2F9C2F0E94261154
:10076000892B41F06DEC71E08D2F9C2F0E9426119A
:10077000892B29F41092D8031092D703E6CF6FEC9F
:1007800071E08D2F9C2F0E942611892B49F061ED7D
:1007900071E08D2F9C2F0E942611892B09F05DC0DE
:1007A00083ED91E00E9483118AE07FDE9F938F9317
:1007B0008EEE91E09F938F930E946D1188E075DE1D
:1007C0009F938F9387EF91E09F938F930E946D117A
:1007D0008091D9048F938091D8048F9380E092E028
:1007E0009F938F930E946D118091E5048F93809168
:1007F000E4048F938091E3048F938091E2048F93BC
:100800008DE092E09F938F930E946D118091DD04A3
:100810008F938091DC048F938091DB048F93809180
:10082000DA048F9387E192E09F938F930E946D117A
:100830008091D7039091D8039F938F9382E592E0A4
:100840009F938F930E946D118DB79EB74C960FB6F4
:10085000F8949EBF0FBE8DBF78CF61E272E08D2FFE
:100860009C2F0E942611892B41F063E272E08D2FAC
:100870009C2F0E942611892B41F481E09091A603C0
:10088000911180E08093A60360CF65E272E08D2F26
:100890009C2F0E942611892B49F067E272E08D2F70
:1008A0009C2F0E942611892B09F04FCF81E0809365
:1008B000D5034BCFC3DC8111B2CC0895A8E0B0E0E2
:1008C000E4E6F4E00C94EB0ED7D32091DA043091F7
:1008D000DB048091D7039091D803A901481B590BE1
:1008E0005E834D83C090DD03D090DE03E090DF0394
:1008F000F090E0034091DE045091DF04840F951FD7
:10090000821B930B6091E6047091E7046C197D09DA
:100910000E94AE0ECB01072E000CAA0BBB0B8093DE
:10092000E2049093E304A093E404B093E5047F937E
:100930006F9382EF91E09F938F930E946D1180914E
:10094000A9039091AA039C01990F440B550B29838D
:100950003A834B835C83CA01B9010E94371020E0BF
:1009600030E04FE754E469837A838B839C83698109
:100970007A818B819C810E949C0F7B018C0160910C
:10098000E2047091E3048091E4049091E5040E94F4
:1009900037109B01AC01E982FA820B831C836981C9
:1009A0007A818B819C810E94C3107B018C01809194
:1009B000A7039091A8039C01990F440B550B298321
:1009C0003A834B835C83CA01B9010E94371020E04F
:1009D00030E04FE754E469837A838B839C83698199
:1009E0007A818B819C810E949C0F5B016C018D81BF
:1009F0009E81092E000CAA0BBB0B8D839E83AF83B7
:100A0000B887BC01CD010E9437109B01AC01A982BF
:100A1000BA82CB82DC8269817A818B819C810E943F
:100A2000C3109B01AC01E982FA820B831C836981AC
:100A30007A818B819C810E94380F69837A838B83B2
:100A40009C8369817A818B819C810E9404107093C0
:100A5000D9046093D8040F900F900F900F9077FFF8
:100A600037C0729A8091D8049091D90497FF03C03F
:100A70009195819591099093D9048093D8048091A0
:100A8000D8049091D90490938B0080938A002D8193
:100A90003E814F8158852093DE043093DF044093DC
:100AA000E0045093E1048091DD039091DE03A09176
:100AB000DF03B091E0038093E6049093E704A093F2
:100AC000E804B093E90438DD2896EAE00C94070FB7
:100AD0007298D5CF8AE0E9DC9093AA038093A903AA
:100AE00088E0E3DC9093A8038093A70308958091A6
:100AF000A6038823F1F18091D7039091D8039F93A7
:100B00008F938091DD048F938091DC048F9380918B
:100B1000DB048F938091DA048F938091E5048F93A7
:100B20008091E4048F938091E3048F938091E20499
:100B30008F938091D9048F938091D8048F93809163
:100B4000A8038F938091A7038F938091AA038F931B
:100B50008091A9038F9389E292E09F938F930E94E3
:100B60006D118DB79EB742960FB6F8949EBF0FBE1B
:100B70008DBF0895FC01A081B1818C91968121E007
:100B800030E001C0220F9A95EAF7822B8C9381E026
:100B900080870895FC01A281B381268181E090E0E5
:100BA00001C0880F2A95EAF727819C91211103C083
:100BB000892B8C93089580958923FBCFFC01A2811A
:100BC000B381268181E090E001C0880F2A95EAF781
:100BD00027819C91211104C0809589238C930895CD
:100BE000892BFCCFFC01A281B3818C91968121E0FD
:100BF00030E001C0220F9A95EAF782278C9308957E
:100C0000FC01A281B381268181E090E001C0880FC0
:100C10002A95EAF727819C91211121C0892B8C9379
:100C20002FEF83EC99E0215080409040E1F700C025
:100C30000000A281B3818C91968121E030E001C057
:100C4000220F9A95EAF782278C932FEF83EC99E095
:100C5000215080409040E1F700C000000895809549
:100C60008923DDCFCF93DF93C2E0D0E080914F01A5
:100C7000882319F087E491E0C3DF8091460188233F
:100C800019F08EE391E0BCDF80913D01882319F0DB
:100C900085E391E0B5DF219719F4DF91CF910895B5
:100CA000C1E0D0E0E3CFCF93DF936A98269A6A9AA7
:100CB0007298A0E8B0E01C92E1E8F0E01082C6E88B
:100CC000D0E0198218828C9180628C938C91826022
:100CD0008C938081886180838081816080838FE9AB
:100CE0009FE09983888310928B0010928A006A9A01
:100CF000DF91CF91089524982598EBE6F0E080816C
:100D000080618083808180628083E8E6F0E080817A
:100D100081608083519A599A08950F920FB60F926D
:100D20001F9211242F933F934F935F936F937F9361
:100D30008F939F93AF93BF93EF93FF93CF93DF93E3
:100D400000D000D0CDB7DEB78091D9039091DA03FF
:100D5000A091DB03B091DC030196A11DB11D80932E
:100D6000D9039093DA03A093DB03B093DC0383B140
:100D700090E09C0144E0359527954A95E1F7217074
:100D800055E0959587955A95E1F781706091EC044F
:100D90007091ED044091EF045091F004261751F04A
:100DA0006091D7037091D8036F5F7F4F7093D80322
:100DB0006093D703481751F04091D7035091D8035F
:100DC000415051095093D8034093D70330E04091EC
:100DD000EF045091F00490E02417350771F0409132
:100DE000EC045091ED044817590739F041E0409365
:100DF000D6034BB150E245274BB93093F004209312
:100E0000EF049093ED048093EC048091D9039091CA
:100E1000DA03A091DB03B091DC03BC01CD0124E136
:100E200030E040E050E0ADD769837A838B839C83C8
:100E3000672B682B692B21F48BB190E289278BB942
:100E40000F900F900F900F90DF91CF91FF91EF9146
:100E5000BF91AF919F918F917F916F915F914F91D2
:100E60003F912F911F900F900FBE0F90189587BD47
:100E700085B5886085BD85B5836085BDEEE6F0E00B
:100E80008081826080830895CF93DF93E0E8F0E073
:100E9000808183608083A1E8B0E08C9188618C932D
:100EA000C8E8D0E08FEF9FEF99838883888199818C
:100EB0009695879590938B0080938A008C9185609E
:100EC0008C93808180628083DF91CF91089584B577
:100ED000826084BD85B5836085BD8AEF87BDEEE6FF
:100EE000F0E08081826080830895A6E0B0E0EAE7C8
:100EF000F7E077C70E94351020E030E040E854E486
:100F000069837A838B839C8369817A818B819C81BD
:100F10000E94C3109B01AC0160E074E284E79BE493
:100F20000E949C0F8B018E839D8369831A838B8320
:100F30009C8369817A818B819C810E940910462F54
:100F4000572F509389004093880020E030E040E024
:100F50005FE309831A838E818B838D818C83698102
:100F60007A818B819C810E94C31069837A838B83F1
:100F70009C8369817A818B819C810E940910462F14
:100F8000572F50938B0040938A002696E4E045C784
:100F90001F921FB61F9211248F939F93AF93BF93FD
:100FA0008091DD039091DE03A091DF03B091E00317
:100FB0000196A11DB11D8093DD039093DE03A093E4
:100FC000DF03B093E003BF91AF919F918F911F908A
:100FD0001FBE1F9018956AE574E084E690E099D9E9
:100FE0006EE574E082E390E094D960E073E080E91C
:100FF00091E08FD96AE675E089E190E08AD967E7E8
:1010000075E08AEF90E085C9089561DF2BDE4BDE45
:1010100072DE729845DA5BDF33D0DDCF089510922F
:10102000D800F3DF78942FEF83E294EF21508040D3
:101030009040E1F700C000008BE592E00E94831130
:101040008EE992E00E9483118BEE92E00E94831160
:1010500080E193E00E94831188E493E00E94831171
:1010600082E693E00E94831189E993E00E94831154
:1010700003D090D9F0D9FCCF80E591E093D3EAC2B8
:1010800084B7877F84BF88E10FB6F89480936000AF
:10109000109260000FBE90E080E80FB6F894809345
:1010A0006100909361000FBE57D063EE73E080E55E
:1010B00091E0CCD3EEEFF4E083EE93E09383828370
:1010C0009183808308950895089580E591E0DCC2BE
:1010D00080E591E0CFC308950F931F93CF93DF93E3
:1010E0004BD052D0C8EDD0E088818F77888388813B
:1010F0008068888388818F7D888319BC1092F5046D
:101100001092F1041092F3041092F20400EE10E039
:10111000F80180818B7F808388818160888342E0B1
:1011200060E080E04DD5E1EEF0E080818E7F80834D
:10113000E2EEF0E08081816080838081886080833E
:10114000F80180818E7F8083888180618883DF9130
:10115000CF911F910F910895E8EDF0E080818F7E8F
:101160008083E7EDF0E080818160808384E082BF4E
:1011700081E08093F404B0CFE8EDF0E080818E7FD1
:1011800080831092E20008951092DA001092E1003C
:1011900008951F920F920FB60F9211242F933F9331
:1011A0004F935F936F937F938F939F93AF93BF936F
:1011B000EF93FF938091E10082FF0AC08091E200EB
:1011C00082FF06C08091E1008B7F8093E10041D2D5
:1011D0008091DA0080FF1DC08091D80080FF19C087
:1011E0008091DA008E7F8093DA008091D90080FFB1
:1011F0000CC080E189BD82E189BD09B400FEFDCF4C
:1012000081E08093F5045FDF04C019BC1092F504FF
:101210005BDF8091E10080FF18C08091E20080FFD9
:1012200014C08091E2008E7F8093E2008091E20002
:1012300080618093E2008091D80080628093D80022
:1012400019BC85E08093F50404D28091E10084FF0D
:101250002FC08091E20084FF2BC080E189BD82E134
:1012600089BD09B400FEFDCF8091D8008F7D8093A9
:10127000D8008091E1008F7E8093E1008091E200B0
:101280008F7E8093E2008091E20081608093E20093
:101290008091F104882311F084E007C08091E3007D
:1012A00087FD02C081E001C083E08093F504D1D1C5
:1012B0008091E10083FF27C08091E20083FF23C07B
:1012C0008091E100877F8093E10082E08093F504C4
:1012D0001092F1048091E1008E7F8093E100809173
:1012E000E2008E7F8093E2008091E2008061809333
:1012F000E20042E060E080E063D48091F00088602A
:101300008093F000A6D1FF91EF91BF91AF919F9193
:101310008F917F916F915F914F913F912F910F909E
:101320000FBE0F901F9018951F920F920FB60F923D
:1013300011242F933F934F935F936F937F938F93DA
:101340009F93AF93BF93CF93DF93EF93FF93C0919E
:10135000E900CF708091EC00D82FD17080FDD0E8EB
:101360001092E9008091F000877F8093F0007894DC
:101370001ED01092E9008091F00088608093F00008
:10138000CD2BCF70C093E900FF91EF91DF91CF910A
:10139000BF91AF919F918F917F916F915F914F918D
:1013A0003F912F910F900FBE0F901F9018951F9394
:1013B000CF93DF93CDB7DEB7AA970FB6F894DEBF11
:1013C0000FBECDBFE6EFF4E088E08E0F9091F10004
:1013D00091938E13FBCF7CDE8091E80083FF21C1C7
:1013E0008091F6049091F704953009F478C030F4B8
:1013F000913081F168F0933069F113C1983009F4AC
:10140000E2C0993009F4F1C0963009F00AC189C0F0
:10141000803881F0823809F004C18091FA048F701D
:101420008093E9008091EB0085FB882780F910927A
:10143000E90006C08091F2049091F304911182605A
:101440009091E800977F9093E8008093F1001092CC
:10145000F100C4C0282F2D7F09F0E3C0882319F0C4
:10146000823061F0DEC08091F804813009F0D9C08B
:10147000933009F080E08093F3042BC08091F8044E
:10148000811127C08091FA048F7009F4CAC080933B
:10149000E9002091EB0020FF1CC0933021F48091E3
:1014A000EB00806214C09091EB0090619093EB0090
:1014B00021E030E0A90102C0440F551F8A95E2F7F0
:1014C0004093EA001092EA008091EB0088608093DC
:1014D000EB001092E9008091E800877F82C08111C3
:1014E000A0C01091F8041F778091E3008078812BD1
:1014F0008093E3008091E800877F8093E800DDD34C
:101500008091E80080FFFCCF8091E30080688093A9
:10151000E300111102C082E001C083E08093F50472
:1015200080C08058823008F07CC08091F80490918F
:10153000F9048C3D53E0950771F583E08A838AE2D4
:1015400089834FB7F894DE01139620E03EE051E224
:10155000E32FF0E050935700E49120FF03C0E295A1
:10156000EF703F5FEF708E2F90E0EA3010F0C7967B
:1015700001C0C0968D939D932F5F243149F74FBFD3
:101580008091E800877F8093E8006AE270E0CE01F6
:10159000019652D212C0AE014F5F5F4F6091FA04C4
:1015A00019D2BC01892B09F43CC09091E800977FC7
:1015B0009093E80089819A81A2D28091E8008B778C
:1015C0008093E8002EC0803861F58091E800877F25
:1015D0008093E8008091F1048093F1008091E8000D
:1015E0008E778093E80069D31CC081111AC0909156
:1015F000F8049230B0F48091E800877F8093E8008F
:101600009093F1045AD38091F104811106C0809126
:10161000E30087FD02C081E001C084E08093F5040F
:1016200054DD8091E80083FF0AC08091E800877F45
:101630008093E8008091EB0080628093EB00AA9693
:101640000FB6F894DEBF0FBECDBFDF91CF911F91D3
:1016500008950895CF938091F504882399F0C0915F
:10166000E900CF709091EC00892F817090FD80E8A7
:10167000C82B1092E9008091E80083FD98DECF70BE
:10168000C093E900CF910895CF93DF93EC01FC0163
:1016900070968BE0DF011D928A95E9F782E08C83DA
:1016A000898783E08E8761E0CE010196BED28823D0
:1016B00061F061E0CE010696B8D2882331F061E096
:1016C000CE010B96DF91CF91B0C280E0DF91CF9138
:1016D00008950F931F93CF932091F5042430F9F4CC
:1016E000FC010489158926893789012B022B032BDC
:1016F000B1F0C62F81818F708093E9008091E8005E
:1017000085FF04C0C093F10080E00AC08091E8002A
:101710008E778093E800F0D28823A1F301C082E0A5
:10172000CF911F910F910895FB01682F84859585B6
:10173000D0DF21E030E0811102C020E030E08827D6
:101740009927821B930B08952091F504243041F5CD
:10175000FC014489558966897789452B462B472B9F
:10176000F9F081818F708093E9002091F3008091DE
:10177000F20090E0922B892B89F09091E800809103
:10178000E8008E778093E80095FD08C0B5D28111FE
:1017900008C08091E8008E778093E80080E008958B
:1017A00082E008952091F504243089F4FC014489F5
:1017B000558966897789452B462B472B41F0218136
:1017C0002F702093E9002091E80020FDBDCF0895FF
:1017D0002091F504243019F08FEF9FEF0895FC015C
:1017E0004489558966897789452B462B472BA1F378
:1017F00086818F708093E9008091E80082FFECCFB2
:101800002091F3008091F20090E0922B892B21F03F
:101810002091F10030E002C02FEF3FEF4091F30044
:101820008091F20090E0942B892B29F48091E800BC
:101830008B778093E800C9010895FC018485958524
:10184000C7DF97FF02C08EEF9FEF0895FB012EE0E8
:10185000DB011D922A95E9F723E0238324E93BE08D
:10186000318720872DE13CE0338722879587848765
:1018700008950895CF93DF93EC018091E80083FFF2
:10188000A6C0888190E02091FA043091FB042817CB
:10189000390709F09CC08091F704813261F020F48F
:1018A000803209F43EC093C0823209F46CC08332A6
:1018B00009F47DC08CC08091F604813A09F087C09C
:1018C0008091E800877F8093E8008091E80080FFA6
:1018D000FCCF8C899D89AE89BF898093F100492F07
:1018E0005A2F6B2F77274093F100AD01662777279A
:1018F0004093F1008B2F9927AA27BB278093F100F3
:10190000888D8093F100898D8093F1008A8D80937A
:10191000F1008091E8008E778093E800DF91CF910D
:10192000CCC18091F604813209F051C08091E80069
:10193000877F8093E8008091E80082FD05C0809158
:10194000F5048111F8CF43C03091F1002091F100EE
:101950009091F1008091F1003C8B2D8B9E8B8F8BB1
:101960008091F100888F8091F100898F8091F10042
:101970008A8F8091E8008B778093E8009ED1CE011A
:10198000DF91CF9176CF8091F604813201F580917D
:10199000E800877F8093E80090D18091F8049091CF
:1019A000F904998B888BCE01DF91CF9194CB8091F4
:1019B000F604813261F48091E800877F8093E8002B
:1019C0007CD16091F804CE01DF91CF9152CFDF91AD
:1019D000CF910895292F33272230310559F0233034
:1019E000310569F021303105F9F482E190E02CE312
:1019F00031E01EC08EE390E02EEF30E019C0992751
:101A00008130910541F08230910541F0892B61F4DC
:101A1000EAEFF0E005C0E0EEF0E002C0E8EBF0E055
:101A2000849190E09F0104C080E090E020E030E0ED
:101A3000FA013183208308952091FC043091FD0444
:101A40002617370748F06115710539F42091E80031
:101A50002E772093E80001C0B90140E061157105BF
:101A6000A9F12091F504222309F443C0253009F49B
:101A700042C02091E80023FD40C02091E80022FDF3
:101A800032C02091E80020FFE9CF4091F30020917F
:101A9000F20030E0342BFC01CF016115710559F0E3
:101AA0002830310540F481918093F1006150710933
:101AB0002F5F3F4FF1CF41E02830310509F040E082
:101AC0002091E8002E772093E800C8CF4111C9CFBC
:101AD0000AC08091F504882361F0853061F080911F
:101AE000E80083FD0AC08091E80082FFF2CF80E029
:101AF000089582E0089583E0089581E0089520919B
:101B0000FC043091FD042617370748F06115710574
:101B100039F42091E8002E772093E80001C0B90144
:101B2000FC0120E06115710591F18091F504882395
:101B300009F440C0853009F43FC08091E80083FD7E
:101B40003DC08091E80082FD2FC08091E80080FFB9
:101B5000E9CF2091F3008091F20090E0922B611583
:101B6000710559F08830910540F424912093F100DB
:101B70003196615071090196F2CF21E0089709F082
:101B800020E08091E8008E778093E800CBCF211190
:101B9000CCCF0AC08091F504882361F0853061F0D4
:101BA0008091E80083FD0AC08091E80082FFF2CFB7
:101BB00080E0089582E0089583E0089581E008952B
:101BC000982F973058F59093E900981739F0709155
:101BD000EC002091ED005091F00003C0242F762FEF
:101BE00050E021FF19C03091EB003E7F3093EB00B5
:101BF0003091ED003D7F3093ED003091EB0031608E
:101C00003093EB007093EC002093ED005093F000C4
:101C10002091EE0027FF07C09F5FD3CF8F70809386
:101C2000E90081E0089580E00895EF92FF920F931C
:101C30001F93CF93DF93E62EEC018C010C5F1F4FB7
:101C4000F12CFE1491F15881552351F1F8012081B6
:101C500069817A8131979081852F8F70873010F05C
:101C600080E024C0223010F442E001C046E0E8E009
:101C7000F0E020E0E617F70720F42F5FEE0FFF1FDC
:101C8000F9CF2295207F422BF0E49F9F90011124F1
:101C9000551F5527551F652F622B92DF882301F3AF
:101CA000F39425960B5F1F4FCCCF81E0DF91CF914E
:101CB0001F910F91FF90EF9008958091F60487FF98
:101CC00011C08091E80082FD05C08091F50481116A
:101CD000F8CF11C08091E8008B770BC08091F5049C
:101CE000882349F08091E80080FFF8CF8091E800D8
:101CF0008E778093E80008952091E4003091E5000C
:101D000095E64091EC00842F817040FF22C08091C5
:101D1000E80080FD1CC08091F504882391F0853097
:101D200091F08091EB0085FD10C04091E40050914E
:101D3000E5004217530729F39A01915011F784E007
:101D4000089582E0089583E0089581E0089580E099
:101D500008954091E80042FFDECF089597FB072EDB
:101D600016F4009406D077FD08D06DD007FC05D09E
:101D70003EF4909581959F4F0895709561957F4FA2
:101D80000895A1E21A2EAA1BBB1BFD010DC0AA1FBC
:101D9000BB1FEE1FFF1FA217B307E407F50720F0D4
:101DA000A21BB30BE40BF50B661F771F881F991F4F
:101DB0001A9469F760957095809590959B01AC0198
:101DC000BD01CF0108952F923F924F925F926F9283
:101DD0007F928F929F92AF92BF92CF92DF92EF92BB
:101DE000FF920F931F93CF93DF93CDB7DEB7CA1B3C
:101DF000DB0B0FB6F894DEBF0FBECDBF09942A8867
:101E0000398848885F846E847D848C849B84AA840E
:101E1000B984C884DF80EE80FD800C811B81AA819B
:101E2000B981CE0FD11D0FB6F894DEBF0FBECDBF66
:101E3000ED0108952A153B054C055D056E057F05EE
:101E4000800791070895AA1BBB1B51E107C0AA1F79
:101E5000BB1FA617B70710F0A61BB70B881F991F4B
:101E60005A95A9F780959095BC01CD0108955058D9
:101E7000BB27AA270ED04DC13ED130F043D120F070
:101E800031F49F3F11F41EF433C10EF4E095E7FBEB
:101E900029C1E92F4FD180F3BA176207730784076E
:101EA000950718F071F49EF567C10EF4E0950B2EBE
:101EB000BA2FA02D0B01B90190010C01CA01A0019C
:101EC0001124FF27591B99F0593F50F4503E68F1F7
:101ED0001A16F040A22F232F342F4427585FF3CF38
:101EE000469537952795A795F0405395C9F77EF409
:101EF0001F16BA0B620B730B840BBAF09150A1F052
:101F0000FF0FBB1F661F771F881FC2F70EC0BA0FD7
:101F1000621F731F841F48F4879577956795B7955F
:101F2000F7959E3F08F0B3CF9395880F08F0992757
:101F3000EE0F9795879508950CD0EBC0E3D040F055
:101F4000DAD030F021F45F3F19F0CCC0511115C147
:101F5000CFC0F0D098F39923C9F35523B1F3951B63
:101F6000550BBB27AA2762177307840738F09F5FBA
:101F70005F4F220F331F441FAA1FA9F333D00E2E29
:101F80003AF0E0E830D091505040E695001CCAF796
:101F900029D0FE2F27D0660F771F881FBB1F26175B
:101FA00037074807AB07B0E809F0BB0B802DBF012E
:101FB000FF2793585F4F2AF09E3F510568F092C06B
:101FC000DCC05F3FECF3983EDCF386957795679530
:101FD000B795F7959F5FC9F7880F911D96958795DF
:101FE00097F90895E1E0660F771F881FBB1F6217FE
:101FF00073078407BA0720F0621B730B840BBA0BBC
:10200000EE1F88F7E095089504D06894B111B5C02B
:10201000089598D088F09F5790F0B92F9927B7511D
:10202000A0F0D1F0660F771F881F991F1AF0BA959C
:10203000C9F712C0B13081F09FD0B1E008959CC0C3
:10204000672F782F8827B85F39F0B93FCCF3869592
:1020500077956795B395D9F73EF4909580957095EF
:1020600061957F4F8F4F9F4F0895E89409C097FB6C
:102070003EF490958095709561957F4F8F4F9F4F5F
:102080009923A9F0F92F96E9BB279395F6958795A3
:1020900077956795B795F111F8CFFAF4BB0F11F466
:1020A00060FF1BC06F5F7F4F8F4F9F4F16C088230D
:1020B00011F096E911C0772321F09EE8872F762F43
:1020C00005C0662371F096E8862F70E060E02AF084
:1020D0009A95660F771F881FDAF7880F9695879570
:1020E00097F9089597F99F6780E870E060E0089598
:1020F0009FEF80EC089500240A9416161706180620
:102100000906089500240A941216130614060506FB
:102110000895092E0394000C11F4882352F0BB0F8C
:1021200040F4BF2B11F460FF04C06F5F7F4F8F4FEF
:102130009F4F089557FD9058440F551F59F05F3F2A
:1021400071F04795880F97FB991F61F09F3F79F0D9
:1021500087950895121613061406551FF2CF46955B
:10216000F1DF08C0161617061806991FF1CF8695DD
:102170007105610508940895E894BB2766277727C1
:10218000CB0197F908950BD0C4CFB5DF28F0BADFA3
:1021900018F0952309F0A6CFABCF1124EECFCADFFC
:1021A000A0F3959FD1F3950F50E0551F629FF0016A
:1021B000729FBB27F00DB11D639FAA27F00DB11DC3
:1021C000AA1F649F6627B00DA11D661F829F22274C
:1021D000B00DA11D621F739FB00DA11D621F839FD3
:1021E000A00D611D221F749F3327A00D611D231FA9
:1021F000849F600D211D822F762F6A2F11249F57F7
:1022000050408AF0E1F088234AF0EE0FFF1FBB1F19
:10221000661F771F881F91505040A9F79E3F5105B8
:1022200070F060CFAACF5F3FECF3983EDCF3869569
:1022300077956795B795F795E7959F5FC1F7FE2B63
:10224000880F911D9695879597F90895FB01DC01FC
:102250008D91019080190110D9F3990B0895CF93B6
:10226000DF93EC018B8180FF33C086FF0CC08F7B36
:102270008B838E819F8101969F838E838A8190E0DC
:10228000DF91CF91089582FF15C0E881F981908197
:10229000292F092E000C330B80629923C1F031964F
:1022A000F983E8838E819F8101969F838E83C90184
:1022B0009927E6CFEA85FB85CE0109959C0197FF1A
:1022C000F1CF8B812F3F3F4F31F090E2892B8B83F1
:1022D0008FEF9FEFD5CF90E1F9CFB0E0A0E0E2E73C
:1022E000F1E181CDFE01359661917191AF0180914F
:1022F00000059091010549D0E2E091CD6091000583
:1023000070910105B9C40F931F93CF93DF93E091B0
:102310000005F0910105238110E000E021FD0EC0D1
:102320000FEF1FEFC801DF91CF911F910F9108951B
:102330000995892B11F00FEF1FEFCE01EC01899168
:102340006091000570910105DB011896ED91FC91FB
:102350008111EECF8AE00995892B21F3E1CFAEE020
:10236000B0E0E4EBF1E13FCD85E08C838B899C8983
:102370009A838983AE01495E5F4F6D897E89CE0164
:10238000019642D32E96E2E04ACDAFE0B0E0EAEC0F
:10239000F1E119CD7C013B018A01DC0117961C9209
:1023A0001E92169713968C9181FFB5C19AE0292E43
:1023B000FE0131964F01D70113969C91F30193FDD5
:1023C000859193FF81913F01882309F43EC18532B5
:1023D00039F493FD859193FF81913F01853221F47A
:1023E000B70190E049D4E7CFB12C412C512CBFE18B
:1023F000B51538F08B3209F188F4803201F183325F
:1024000021F157FC3AC020ED280F2A3040F556FE46
:102410001FC0B29C200D1124B22E06C08D3291F047
:10242000803379F7689450F8F30193FD859193FF19
:1024300081913F018111DBCF20C0689451F86894ED
:1024400052F8F2CF689453F8EFCF689454F8ECCF79
:10245000429C200D1124422E689455F8E5CF8E320F
:1024600029F456FCF2C0689456F8DECF8C3619F485
:10247000689457F8D9CF8836B9F2982F9F7D955434
:102480009330B8F0833691F18337B1F1833509F099
:1024900056C0D801CD90DD908D016B2D70E056FCBB
:1024A00002C06FEF7FEFC601D1D35C01689457F88B
:1024B0000AC00C5F1F4FEFE3E983AA24A394B12C59
:1024C0006401E89457F853FC04C04A141B0409F053
:1024D00008F5342CA114B10419F5332009F46BCF9D
:1024E000B70180E290E0C8D33A94F7CFD8018C913D
:1024F00089830E5F1F4FE1CFF801C190D1908F010A
:102500006B2D70E056FC02C06FEF7FEFC601A9D3C0
:102510005C01D7CFB70180E290E0AED34A94D5CF2B
:10252000F60157FC859157FE81916F01B70190E04C
:10253000A3D331103A94B1E0AB1AB108CBCF8436B3
:1025400019F0893609F070C0F80157FE66C0619134
:102550007191819191918F01E52DEF76DE2E97FF9C
:1025600009C090958095709561957F4F8F4F9F4FD3
:102570006894D7F82AE030E0A401C6D3C82EC81862
:10258000AC2C5D2CD6FE0CC0E89450F8CB1440F473
:10259000D4FE05C0D2FC03C05D2D5E7E552EAB2C53
:1025A00054FE93C0FE01EC0DF11D8081803309F0D3
:1025B00085C0652D697E562E752D7870372E53FC9B
:1025C00092C050FE8CC0BC2CA41418F44C0CB42C3B
:1025D000BA1854FE8EC0B70180E390E04DD352FE8E
:1025E00008C088E790E051FE02C088E590E0B7019E
:1025F00043D3CB1408F489C0CA94D12C8FEFC81AE6
:10260000D80AC80CD91CD6018E916D01B70190E093
:1026100033D38C149D04B9F760CF61917191072E6B
:10262000000C880B990B97CFD52CE894D4F82AE0AE
:1026300030E0853731F1F52DF97FDF2E8037A1F0BD
:1026400050F48835A1F08F36D1F0F701868197815B
:102650002F96E2E1D4CB8837C1F7D4FE02C068944C
:10266000D2F820E130E00DC06894D4F8F6CF54FEE3
:1026700003C02F2F2660D22E20E132E002C028E0D6
:1026800030E0F801D7FE14C04191519161917191F0
:102690004C875D876E877F878F01A4016C857D8560
:1026A0008E859F8531D3C82EC818E894D7F868CF97
:1026B00081919191AC0170E060E0EACF52FC02C0E0
:1026C000A3947ACFA394A39477CF852D867809F429
:1026D00073CFF6CFB70180E290E0CED2A394A414DA
:1026E000C8F3312C76CF342C3A18A41408F471CFE7
:1026F000F8CF852D867809F47CCF8BE251FE80E2FD
:1027000057FC8DE2B70190E073CFB70180E390E012
:10271000B3D2BA946ECF8FEF9FEF9ACFFC01CA016C
:10272000DB0120FD08C023FD05C022FF02C0B383EA
:10273000A283918380830895CF92DF92EF92FF92DC
:10274000CF93DF9300D000D0CDB7DEB76B017C0113
:1027500083E044FD10C084E046FD0DC0D601F701C2
:10276000AA0FBB1FEE1FFF1F1094D1F7CA0EDB1E6E
:10277000EE1EFF1E81E0CC0CDD1CEE1CFF1C815008
:10278000D1F7D701C601820F911DA11DB11DBC015A
:10279000CD010F900F900F900F90DF91CF91FF9090
:1027A000EF90DF90CF9008950F931F93CF93DF9317
:1027B0008C01C80154DDEC0197FD06C034D2892B91
:1027C000C1F7B801CE0188D2CE01DF91CF911F9120
:1027D0000F910895B0E0A0E0EFEEF3E1FCCA8C01A8
:1027E000C62F5A01F22E3BDDFC019927EB3221F076
:1027F0008D9771F46894F7F8C15029F480E0CDB753
:10280000DEB7EAE004CBC8012ADDFC0197FDF6CF74
:10281000DF2DDD7F8F2D8073F9F4E033E9F4EE24B2
:10282000EA94EC0EC13081F0C80119DDFC0197FD7E
:102830000BC08F7D883561F4D264C25029F0C80185
:102840000EDDFC0197FF08C0C12CD12C76011BC006
:10285000F6FE2AC0D260CE2DC12CD12C760120EDFF
:102860002E0F283020F1D4FD09C02A3000F1D6FF08
:1028700005C02F7D8FEE820F8630C0F0B801CF01EA
:102880002BD2D1FFBBCFD7FF08C0F094E094D094F7
:10289000C094C11CD11CE11CF11C2D2FB701A60155
:1028A000C5013CDF81E0ABCFD261D5CF27504D2FA2
:1028B000C701B60141DF6B017C01D260C15019F341
:1028C000C801CDDCFC0197FFCACFDBCFA0E2B0E0AE
:1028D000EBE6F4E17ECA6C01962E7A01CE010196F8
:1028E0005C0180E2F50111928A95E9F7F601838097
:1028F000890150E040E0B0E020E0A0E061E070E05D
:10290000F80183FC959183FE9191892F8F0191119C
:1029100006C010E000E0C801A096ECE076CA9E3543
:1029200019F44115510531F1A4171506ECF49D3544
:1029300049F19D32C9F4222309F1E82FE695E69585
:10294000E695EA0DFB2DF11D982F97709B0101C0B4
:10295000220F9A95EAF79081292B20838B1781F01B
:102960008B1730F48F5FE9CF2111E7CFB92FE5CF77
:102970008150E3CFA1E04F5F5F4FC2CF21E0FBCF9B
:1029800020E0F9CF222319F08E8180628E83AA2362
:1029900061F0F5019E012F5D3F4F8081DF0131968F
:1029A00080958C93E217F307C1F788248394C601BE
:1029B00056DC97FD15C0E82FE695E695E695EA0DFD
:1029C000FB2DF11D208130E0AC014770552702C07E
:1029D000359527954A95E2F720FD05C0B6017CD1D3
:1029E000882059F096CFE114F10419F0F701819392
:1029F0007F019A94812C9110DACFE114F10409F44B
:102A00008ACFF701108287CFA6E0B0E0E9E0F5E1D8
:102A1000DEC95C016D837E83742E652EDC01179602
:102A20001C921E921697C12CD5011396FC90ED8135
:102A3000FE81F3FC8591F3FE8191182FFE83ED83D7
:102A40008823D9F090E0EFD0892B19F0C501ACDED6
:102A5000EBCF153251F4ED81FE81F3FC1591F3FEBD
:102A60001191FE83ED83153259F4C501F8DB97FD12
:102A70009CC01817C9F2B5012FD18C2D90E099C0D8
:102A800000E01A3249F4ED81FE81F3FC1591F3FE6A
:102A90001191FE83ED8301E0D12C20ED210F2A302E
:102AA00050F101FF3FC0DD2041F3183609F43DC06D
:102AB0001C3609F446C0112301F3612F70E08CEA43
:102AC00090E0B9D0892BC9F2F12CE12C00FD06C0B1
:102AD000E72DF62DE190F1907E2E6F2E1E3609F037
:102AE0003AC0D50116964D915C9170E060E0202FC0
:102AF000C70114DE99CF02608D2D90E0B0E0A0E018
:102B000089839A83AB83BC8340E2BC01CD0114DE90
:102B1000D62EED81FE81F3FC1591F3FE1191FE831B
:102B2000ED83BBCFDD24DA94C0CFED81FE81F3FCD1
:102B30001591F3FE1191FE83ED83183609F0BBCF9A
:102B400008600460ED81FE81F3FC1591F3FE1191A4
:102B5000FE83ED83B0CF1336A9F401FD02C0DD245E
:102B6000D394C5017CDB97FD20C0E114F10419F07A
:102B7000F70181937F01DA94D110F3CF00FD54CF98
:102B8000C39452CF1B35C1F42D813E81A7016D2D19
:102B9000C5019CDE8D839E83ED81FE81EF2B71F755
:102BA000F5018381807309F468CF8FEF9FEFC11027
:102BB00064CF2696EEE027C9C501F6DD97FDF5CF77
:102BC0001F3679F130F4143641F0193639F00064CB
:102BD00005C01337A1F01537D1F70062202FA701E8
:102BE0006D2DC501F7DD8111C9CFDACFE114F104F4
:102BF00019F0F70181927F01DA94DD2059F0C501C7
:102C00002EDB4C0197FD06C00ED0892B79F3B50160
:102C1000C40162D0E114F10409F4B0CFD7011C92D1
:102C2000ADCF0061DBCF9111CDC0803219F089505A
:102C30008550D0F70895FC010590061621F000207C
:102C4000D9F7C00108953197CF010895FC0105908F
:102C5000615070400110D8F7809590958E0F9F1F9E
:102C60000895FC016150704001900110D8F78095E3
:102C700090958E0F9F1F08950F931F93CF93DF930F
:102C8000182F092FEB018B8181FD09C01FEF0FEF7A
:102C9000812F902FDF91CF911F910F91089582FF87
:102CA00014C02E813F818C819D81281739073CF407
:102CB000E881F981CF0101969983888310838E8101
:102CC0009F8101969F838E83E3CFE885F985812FCD
:102CD0000995892BA1F3DACFFB01238120FF11C0D5
:102CE00026FD0FC08F3F980771F082832F7D2064EF
:102CF0002383268137812150310937832683992701
:102D000008958FEF9FEF0895FA01AA27283051F117
:102D1000203181F1E8946F936E7F6E5F7F4F8F4F0C
:102D20009F4FAF4FB1E03ED0B4E03CD0670F781F6B
:102D3000891F9A1FA11D680F791F8A1F911DA11D50
:102D40006A0F711D811D911DA11D20D009F4689489
:102D50003F912AE0269F11243019305D3193DEF631
:102D6000CF010895462F4770405D4193B3E00FD0E7
:102D7000C9F7F6CF462F4F70405D4A3318F0495DD2
:102D800031FD4052419302D0A9F7EACFB4E0A695B5
:102D90009795879577956795BA95C9F700976105D7
:102DA000710508959B01AC010A2E0694579547952D
:102DB00037952795BA95C9F7620F731F841F951F22
:0E2DC000A01D0895992788270895F894FFCF45
:102DCE00C4004D454E55206E6F7420646566696E65
:102DDE00656400000000000000000000000000001C
:102DEE0000000000000000000000000000000000D5
:102DFE0000000000012A002B00290005010024001C
:102E0E0025002300000100270028002600070000EF
:102E1E000083100000010410000001820800000170
:102E2E000000000000000000000000257320256453
:102E3E002025642025642025642025642025642017
:102E4E00256420256420256420256400436F6D6D64
:102E5E00616E6420427566666572205265616479A2
:102E6E002E204E6F742070726F6365737365642EBF
:102E7E002050726F63657373696E67206E6F772E65
:102E8E000A0D0008200800520072005A007A0056FF
:102E9E000076005072696E74696E67206375727287
:102EAE00656E742076616C7565733A200D004B6407
:102EBE003A2025640D0A004B703A2025640D0A0055
:102ECE00546F727175653A2025640D0A00566D3A7D
:102EDE0020256C640D0A0050723A20256C640D0A90
:102EEE000053007300540074006B443A2025642094
:102EFE006B503A20256420546F727175653A202507
:102F0E006420566D3A20256C642050723A20256C50
:102F1E006420506D3A2025640D0A0057656C636F6E
:102F2E006D6520746F206D7920776F6E64657266A3
:102F3E00756C20504420636F6E74726F6C207379C1
:102F4E007374656D2E2048657265206172652074FC
:102F5E00686520636F6D6D616E64733A0D00522F5C
:102F6E007220666F6C6C6F776564206279206120C9
:102F7E006C697374206F6620757020746F20746591
:102F8E006E20776179706F696E74732077696C6CDF
:102F9E002073657420746865206D6F746F7220776E
:102FAE006179706F696E74732E0D005A2F7A2077C7
:102FBE00696C6C207A65726F2074686520656E632B
:102FCE006F64657220706F736974696F6E2E0D0079
:102FDE00562F762077696C6C207072696E74206F34
:102FEE00757420616C6C2063757272656E742076D8
:102FFE00616C75657320286F6620696D706F7274D1
:10300E00616E6365292E0D00532F732077696C6CEA
:10301E0020656E61626C65206C6F6767696E672EE6
:10302E000D00542F742077696C6C207365742074B6
:10303E006865206D6F746F7220746F20657865639C
:10304E0075746520616C6C20696E70757420776183
:10305E0079706F696E74730D00456E6A6F79210D0C
:02306E00000060
:00000001FF
